{
  "abi": [
    {
      "inputs": [
        {
          "internalType": "uint256",
          "name": "chainId_",
          "type": "uint256"
        }
      ],
      "payable": false,
      "stateMutability": "nonpayable",
      "type": "constructor"
    },
    {
      "anonymous": false,
      "inputs": [
        {
          "indexed": true,
          "internalType": "address",
          "name": "src",
          "type": "address"
        },
        {
          "indexed": true,
          "internalType": "address",
          "name": "guy",
          "type": "address"
        },
        {
          "indexed": false,
          "internalType": "uint256",
          "name": "wad",
          "type": "uint256"
        }
      ],
      "name": "Approval",
      "type": "event"
    },
    {
      "anonymous": true,
      "inputs": [
        {
          "indexed": true,
          "internalType": "bytes4",
          "name": "sig",
          "type": "bytes4"
        },
        {
          "indexed": true,
          "internalType": "address",
          "name": "usr",
          "type": "address"
        },
        {
          "indexed": true,
          "internalType": "bytes32",
          "name": "arg1",
          "type": "bytes32"
        },
        {
          "indexed": true,
          "internalType": "bytes32",
          "name": "arg2",
          "type": "bytes32"
        },
        {
          "indexed": false,
          "internalType": "bytes",
          "name": "data",
          "type": "bytes"
        }
      ],
      "name": "LogNote",
      "type": "event"
    },
    {
      "anonymous": false,
      "inputs": [
        {
          "indexed": true,
          "internalType": "address",
          "name": "src",
          "type": "address"
        },
        {
          "indexed": true,
          "internalType": "address",
          "name": "dst",
          "type": "address"
        },
        {
          "indexed": false,
          "internalType": "uint256",
          "name": "wad",
          "type": "uint256"
        }
      ],
      "name": "Transfer",
      "type": "event"
    },
    {
      "constant": true,
      "inputs": [],
      "name": "DOMAIN_SEPARATOR",
      "outputs": [
        {
          "internalType": "bytes32",
          "name": "",
          "type": "bytes32"
        }
      ],
      "payable": false,
      "stateMutability": "view",
      "type": "function"
    },
    {
      "constant": true,
      "inputs": [],
      "name": "PERMIT_TYPEHASH",
      "outputs": [
        {
          "internalType": "bytes32",
          "name": "",
          "type": "bytes32"
        }
      ],
      "payable": false,
      "stateMutability": "view",
      "type": "function"
    },
    {
      "constant": true,
      "inputs": [
        {
          "internalType": "address",
          "name": "",
          "type": "address"
        },
        {
          "internalType": "address",
          "name": "",
          "type": "address"
        }
      ],
      "name": "allowance",
      "outputs": [
        {
          "internalType": "uint256",
          "name": "",
          "type": "uint256"
        }
      ],
      "payable": false,
      "stateMutability": "view",
      "type": "function"
    },
    {
      "constant": false,
      "inputs": [
        {
          "internalType": "address",
          "name": "usr",
          "type": "address"
        },
        {
          "internalType": "uint256",
          "name": "wad",
          "type": "uint256"
        }
      ],
      "name": "approve",
      "outputs": [
        {
          "internalType": "bool",
          "name": "",
          "type": "bool"
        }
      ],
      "payable": false,
      "stateMutability": "nonpayable",
      "type": "function"
    },
    {
      "constant": true,
      "inputs": [
        {
          "internalType": "address",
          "name": "",
          "type": "address"
        }
      ],
      "name": "balanceOf",
      "outputs": [
        {
          "internalType": "uint256",
          "name": "",
          "type": "uint256"
        }
      ],
      "payable": false,
      "stateMutability": "view",
      "type": "function"
    },
    {
      "constant": false,
      "inputs": [
        {
          "internalType": "address",
          "name": "usr",
          "type": "address"
        },
        {
          "internalType": "uint256",
          "name": "wad",
          "type": "uint256"
        }
      ],
      "name": "burn",
      "outputs": [],
      "payable": false,
      "stateMutability": "nonpayable",
      "type": "function"
    },
    {
      "constant": true,
      "inputs": [],
      "name": "decimals",
      "outputs": [
        {
          "internalType": "uint8",
          "name": "",
          "type": "uint8"
        }
      ],
      "payable": false,
      "stateMutability": "view",
      "type": "function"
    },
    {
      "constant": false,
      "inputs": [
        {
          "internalType": "address",
          "name": "guy",
          "type": "address"
        }
      ],
      "name": "deny",
      "outputs": [],
      "payable": false,
      "stateMutability": "nonpayable",
      "type": "function"
    },
    {
      "constant": false,
      "inputs": [
        {
          "internalType": "address",
          "name": "usr",
          "type": "address"
        },
        {
          "internalType": "uint256",
          "name": "wad",
          "type": "uint256"
        }
      ],
      "name": "mint",
      "outputs": [],
      "payable": false,
      "stateMutability": "nonpayable",
      "type": "function"
    },
    {
      "constant": false,
      "inputs": [
        {
          "internalType": "address",
          "name": "src",
          "type": "address"
        },
        {
          "internalType": "address",
          "name": "dst",
          "type": "address"
        },
        {
          "internalType": "uint256",
          "name": "wad",
          "type": "uint256"
        }
      ],
      "name": "move",
      "outputs": [],
      "payable": false,
      "stateMutability": "nonpayable",
      "type": "function"
    },
    {
      "constant": true,
      "inputs": [],
      "name": "name",
      "outputs": [
        {
          "internalType": "string",
          "name": "",
          "type": "string"
        }
      ],
      "payable": false,
      "stateMutability": "view",
      "type": "function"
    },
    {
      "constant": true,
      "inputs": [
        {
          "internalType": "address",
          "name": "",
          "type": "address"
        }
      ],
      "name": "nonces",
      "outputs": [
        {
          "internalType": "uint256",
          "name": "",
          "type": "uint256"
        }
      ],
      "payable": false,
      "stateMutability": "view",
      "type": "function"
    },
    {
      "constant": false,
      "inputs": [
        {
          "internalType": "address",
          "name": "holder",
          "type": "address"
        },
        {
          "internalType": "address",
          "name": "spender",
          "type": "address"
        },
        {
          "internalType": "uint256",
          "name": "nonce",
          "type": "uint256"
        },
        {
          "internalType": "uint256",
          "name": "expiry",
          "type": "uint256"
        },
        {
          "internalType": "bool",
          "name": "allowed",
          "type": "bool"
        },
        {
          "internalType": "uint8",
          "name": "v",
          "type": "uint8"
        },
        {
          "internalType": "bytes32",
          "name": "r",
          "type": "bytes32"
        },
        {
          "internalType": "bytes32",
          "name": "s",
          "type": "bytes32"
        }
      ],
      "name": "permit",
      "outputs": [],
      "payable": false,
      "stateMutability": "nonpayable",
      "type": "function"
    },
    {
      "constant": false,
      "inputs": [
        {
          "internalType": "address",
          "name": "usr",
          "type": "address"
        },
        {
          "internalType": "uint256",
          "name": "wad",
          "type": "uint256"
        }
      ],
      "name": "pull",
      "outputs": [],
      "payable": false,
      "stateMutability": "nonpayable",
      "type": "function"
    },
    {
      "constant": false,
      "inputs": [
        {
          "internalType": "address",
          "name": "usr",
          "type": "address"
        },
        {
          "internalType": "uint256",
          "name": "wad",
          "type": "uint256"
        }
      ],
      "name": "push",
      "outputs": [],
      "payable": false,
      "stateMutability": "nonpayable",
      "type": "function"
    },
    {
      "constant": false,
      "inputs": [
        {
          "internalType": "address",
          "name": "guy",
          "type": "address"
        }
      ],
      "name": "rely",
      "outputs": [],
      "payable": false,
      "stateMutability": "nonpayable",
      "type": "function"
    },
    {
      "constant": true,
      "inputs": [],
      "name": "symbol",
      "outputs": [
        {
          "internalType": "string",
          "name": "",
          "type": "string"
        }
      ],
      "payable": false,
      "stateMutability": "view",
      "type": "function"
    },
    {
      "constant": true,
      "inputs": [],
      "name": "totalSupply",
      "outputs": [
        {
          "internalType": "uint256",
          "name": "",
          "type": "uint256"
        }
      ],
      "payable": false,
      "stateMutability": "view",
      "type": "function"
    },
    {
      "constant": false,
      "inputs": [
        {
          "internalType": "address",
          "name": "dst",
          "type": "address"
        },
        {
          "internalType": "uint256",
          "name": "wad",
          "type": "uint256"
        }
      ],
      "name": "transfer",
      "outputs": [
        {
          "internalType": "bool",
          "name": "",
          "type": "bool"
        }
      ],
      "payable": false,
      "stateMutability": "nonpayable",
      "type": "function"
    },
    {
      "constant": false,
      "inputs": [
        {
          "internalType": "address",
          "name": "src",
          "type": "address"
        },
        {
          "internalType": "address",
          "name": "dst",
          "type": "address"
        },
        {
          "internalType": "uint256",
          "name": "wad",
          "type": "uint256"
        }
      ],
      "name": "transferFrom",
      "outputs": [
        {
          "internalType": "bool",
          "name": "",
          "type": "bool"
        }
      ],
      "payable": false,
      "stateMutability": "nonpayable",
      "type": "function"
    },
    {
      "constant": true,
      "inputs": [],
      "name": "version",
      "outputs": [
        {
          "internalType": "string",
          "name": "",
          "type": "string"
        }
      ],
      "payable": false,
      "stateMutability": "view",
      "type": "function"
    },
    {
      "constant": true,
      "inputs": [
        {
          "internalType": "address",
          "name": "",
          "type": "address"
        }
      ],
      "name": "wards",
      "outputs": [
        {
          "internalType": "uint256",
          "name": "",
          "type": "uint256"
        }
      ],
      "payable": false,
      "stateMutability": "view",
      "type": "function"
    }
  ],
  "bytecode": {
    "object": "0x608060405234801561001057600080fd5b506040516112013803806112018339818101604052602081101561003357600080fd5b5051336000908152602081905260409081902060019055518060526111af8239604080519182900360520182208282018252600e83527f44616920537461626c65636f696e00000000000000000000000000000000000060209384015281518083018352600181527f3100000000000000000000000000000000000000000000000000000000000000908401528151808401919091527f0b1461ddc0c1d5ded79a1db0f74dae949050a7c0b28728c724b24958c27a328b818301527fc89efdaa54c0f20c7adf612882df0950f5a951637e0307cdcb4c672f298b8bc6606082015260808101949094523060a0808601919091528151808603909101815260c0909401905282519201919091206005555061105d806101526000396000f3fe608060405234801561001057600080fd5b50600436106101125760003560e01c806306fdde0314610117578063095ea7b31461019657806318160ddd146101d657806323b872dd146101f057806330adf81f14610226578063313ce5671461022e5780633644e5151461024c57806340c10f191461025457806354fd4d501461028257806365fae35e1461028a57806370a08231146102b05780637ecebe00146102d65780638fcbaf0c146102fc57806395d89b41146103565780639c52a7f11461035e5780639dc29fac14610384578063a9059cbb146103b0578063b753a98c146103dc578063bb35783b14610408578063bf353dbb1461043e578063dd62ed3e14610464578063f2d5d56b14610492575b600080fd5b61011f6104be565b60405160208082528190810183818151815260200191508051906020019080838360005b8381101561015b578082015183820152602001610143565b50505050905090810190601f1680156101885780820380516001836020036101000a031916815260200191505b509250505060405180910390f35b6101c2600480360360408110156101ac57600080fd5b506001600160a01b0381351690602001356104e6565b604051901515815260200160405180910390f35b6101de610558565b60405190815260200160405180910390f35b6101c26004803603606081101561020657600080fd5b506001600160a01b0381358116916020810135909116906040013561055e565b6101de610796565b6102366107ba565b60405160ff909116815260200160405180910390f35b6101de6107bf565b6102806004803603604081101561026a57600080fd5b506001600160a01b0381351690602001356107c5565b005b61011f61089a565b610280600480360360208110156102a057600080fd5b50356001600160a01b03166108b5565b6101de600480360360208110156102c657600080fd5b50356001600160a01b0316610963565b6101de600480360360208110156102ec57600080fd5b50356001600160a01b0316610977565b610280600480360361010081101561031357600080fd5b506001600160a01b038135811691602081013590911690604081013590606081013590608081013515159060ff60a0820135169060c08101359060e0013561098b565b61011f610ca5565b6102806004803603602081101561037457600080fd5b50356001600160a01b0316610cc2565b6102806004803603604081101561039a57600080fd5b506001600160a01b038135169060200135610d6d565b6101c2600480360360408110156103c657600080fd5b506001600160a01b038135169060200135610f72565b610280600480360360408110156103f257600080fd5b506001600160a01b038135169060200135610f86565b6102806004803603606081101561041e57600080fd5b506001600160a01b03813581169160208101359091169060400135610f96565b6101de6004803603602081101561045457600080fd5b50356001600160a01b0316610fa7565b6101de6004803603604081101561047a57600080fd5b506001600160a01b0381358116916020013516610fbb565b610280600480360360408110156104a857600080fd5b506001600160a01b038135169060200135610fdd565b60405160408082019052600e81526d2230b49029ba30b13632b1b7b4b760911b602082015281565b336000908152600360205281604082206001600160a01b038516600090815260209190915260409020556001600160a01b038316337f8c5be1e5ebec7d5bd14f71427d1e84f3dd0314c0f7b2291e5b200ac8c7c3b9258460405190815260200160405180910390a35060015b92915050565b60015481565b6001600160a01b0383166000908152600260205281604082205410156105c55760405162461bcd60e51b81526020600482015260186024820152774461692f696e73756666696369656e742d62616c616e636560401b604482015260640160405180910390fd5b6001600160a01b038416331480159061060957506001600160a01b038416600090815260036020526000199060409020336000908152602091909152604090205414155b156106e5576001600160a01b03841660009081526003602052829060409020336000908152602091909152604090205410156106885760405162461bcd60e51b815260206004820152601a6024820152794461692f696e73756666696369656e742d616c6c6f77616e636560301b604482015260640160405180910390fd5b6001600160a01b038416600090815260036020526106bb9060409020336000908152602091909152604090205483610fe8565b6001600160a01b038516600090815260036020526040902033600090815260209190915260409020555b6001600160a01b0384166000908152600260205261070890604090205483610fe8565b6001600160a01b0385166000908152600260205260409020556001600160a01b0383166000908152600260205261074490604090205483610ff8565b6001600160a01b0384166000908152600260205260409020556001600160a01b038084169085166000805160206110098339815191528460405190815260200160405180910390a35060019392505050565b7fea2aa0a1be11a07ed86d755c93467f4f82362b452371d1ba94d1715123511acb81565b601281565b60055481565b3360009081526020819052604090205460011461081d5760405162461bcd60e51b815260206004820152601260248201527111185a4bdb9bdd0b585d5d1a1bdc9a5e995960721b604482015260640160405180910390fd5b6001600160a01b0382166000908152600260205261084090604090205482610ff8565b6001600160a01b0383166000908152600260205260409020556001546108669082610ff8565b6001556001600160a01b03821660006000805160206110098339815191528360405190815260200160405180910390a35050565b6040516040808201905260018152603160f81b602082015281565b3360009081526020819052604090205460011461090d5760405162461bcd60e51b815260206004820152601260248201527111185a4bdb9bdd0b585d5d1a1bdc9a5e995960721b604482015260640160405180910390fd5b6001600160a01b0381166000908152602081905260019060409020555961012081016040526020815260e0602082015260e060006040830137602435600435336001600160e01b03196000351661012085a45050565b600260205280600052604060002054905081565b600460205280600052604060002054905081565b6005546000907fea2aa0a1be11a07ed86d755c93467f4f82362b452371d1ba94d1715123511acb8a8a8a8a8a60405160208101969096526001600160a01b03948516604080880191909152939094166060860152608085019190915260a084015290151560c083015260e090910190516020818303038152906040528051906020012060405161190160f01b6020820152602281019290925260428201526062016040516020818303038152906040528051906020012090506001600160a01b038916610a965760405162461bcd60e51b815260206004820152601560248201527404461692f696e76616c69642d616464726573732d3605c1b604482015260640160405180910390fd5b60018185858560405160008152602001604052604051808581526020018460ff1660ff1681526020018381526020018281526020019450505050506020604051602081039080840390855afa158015610af3573d6000803e3d6000fd5b505050602060405103516001600160a01b0316896001600160a01b031614610b565760405162461bcd60e51b815260206004820152601260248201527111185a4bda5b9d985b1a590b5c195c9b5a5d60721b604482015260640160405180910390fd5b851580610b635750854211155b610ba85760405162461bcd60e51b815260206004820152601260248201527111185a4bdc195c9b5a5d0b595e1c1a5c995960721b604482015260640160405180910390fd5b6001600160a01b03891660009081526004602052604090208054600181019091558714610c0f5760405162461bcd60e51b81526020600482015260116024820152704461692f696e76616c69642d6e6f6e636560781b604482015260640160405180910390fd5b600085610c1d576000610c21565b6000195b6001600160a01b038b16600090815260036020529091508190604090206001600160a01b038b16600090815260209190915260409020556001600160a01b03808a16908b167f8c5be1e5ebec7d5bd14f71427d1e84f3dd0314c0f7b2291e5b200ac8c7c3b9258360405190815260200160405180910390a350505050505050505050565b60405160408082019052600381526244414960e81b602082015281565b33600090815260208190526040902054600114610d1a5760405162461bcd60e51b815260206004820152601260248201527111185a4bdb9bdd0b585d5d1a1bdc9a5e995960721b604482015260640160405180910390fd5b6001600160a01b0381166000908152602081905260408120555961012081016040526020815260e0602082015260e060006040830137602435600435336001600160e01b03196000351661012085a45050565b6001600160a01b03821660009081526002602052819060409020541015610dd55760405162461bcd60e51b81526020600482015260186024820152774461692f696e73756666696369656e742d62616c616e636560401b604482015260640160405180910390fd5b6001600160a01b0382163314801590610e1957506001600160a01b038216600090815260036020526000199060409020336000908152602091909152604090205414155b15610ef5576001600160a01b0382166000908152600360205281906040902033600090815260209190915260409020541015610e985760405162461bcd60e51b815260206004820152601a6024820152794461692f696e73756666696369656e742d616c6c6f77616e636560301b604482015260640160405180910390fd5b6001600160a01b03821660009081526003602052610ecb9060409020336000908152602091909152604090205482610fe8565b6001600160a01b038316600090815260036020526040902033600090815260209190915260409020555b6001600160a01b03821660009081526002602052610f1890604090205482610fe8565b6001600160a01b038316600090815260026020526040902055600154610f3e9082610fe8565b60015560006001600160a01b0383166000805160206110098339815191528360405190815260200160405180910390a35050565b6000610f7f33848461055e565b9392505050565b610f9133838361055e565b505050565b610fa183838361055e565b50505050565b600060205280600052604060002054905081565b6003602052816000526040600020602052806000526040600020549150829050565b610f9182338361055e565b8082038281111561055257600080fd5b8082018281101561055257600080fdfeddf252ad1be2c89b69c2b068fc378daa952ba7f163c4a11628f55a4df523b3efa265627a7a7231582073e3a3f17b866ef3f1a8869d1aa2a73e179b3b897c1c9d59100a661876e84b4764736f6c634300050c0032454950373132446f6d61696e28737472696e67206e616d652c737472696e672076657273696f6e2c75696e7432353620636861696e49642c6164647265737320766572696679696e67436f6e747261637429",
    "linkReferences": {}
  },
  "methodIdentifiers": {
    "DOMAIN_SEPARATOR()": "3644e515",
    "PERMIT_TYPEHASH()": "30adf81f",
    "allowance(address,address)": "dd62ed3e",
    "approve(address,uint256)": "095ea7b3",
    "balanceOf(address)": "70a08231",
    "burn(address,uint256)": "9dc29fac",
    "decimals()": "313ce567",
    "deny(address)": "9c52a7f1",
    "mint(address,uint256)": "40c10f19",
    "move(address,address,uint256)": "bb35783b",
    "name()": "06fdde03",
    "nonces(address)": "7ecebe00",
    "permit(address,address,uint256,uint256,bool,uint8,bytes32,bytes32)": "8fcbaf0c",
    "pull(address,uint256)": "f2d5d56b",
    "push(address,uint256)": "b753a98c",
    "rely(address)": "65fae35e",
    "symbol()": "95d89b41",
    "totalSupply()": "18160ddd",
    "transfer(address,uint256)": "a9059cbb",
    "transferFrom(address,address,uint256)": "23b872dd",
    "version()": "54fd4d50",
    "wards(address)": "bf353dbb"
  },
  "id": 0
}