{
  "abi": [
    {
      "inputs": [
        {
          "internalType": "address",
          "name": "_weth",
          "type": "address"
        }
      ],
      "stateMutability": "nonpayable",
      "type": "constructor"
    },
    {
      "stateMutability": "payable",
      "type": "fallback"
    },
    {
      "inputs": [],
      "name": "WETH",
      "outputs": [
        {
          "internalType": "address",
          "name": "",
          "type": "address"
        }
      ],
      "stateMutability": "view",
      "type": "function"
    },
    {
      "inputs": [
        {
          "internalType": "address",
          "name": "_tokenArb",
          "type": "address"
        },
        {
          "internalType": "address",
          "name": "_tokenSettle",
          "type": "address"
        },
        {
          "internalType": "address",
          "name": "_startFactory",
          "type": "address"
        },
        {
          "internalType": "address",
          "name": "_endFactory",
          "type": "address"
        },
        {
          "internalType": "address",
          "name": "_pairStart",
          "type": "address"
        },
        {
          "internalType": "address",
          "name": "_pairEnd",
          "type": "address"
        },
        {
          "internalType": "uint256",
          "name": "_amountIn",
          "type": "uint256"
        }
      ],
      "name": "arb",
      "outputs": [
        {
          "internalType": "uint256",
          "name": "amountOut",
          "type": "uint256"
        }
      ],
      "stateMutability": "nonpayable",
      "type": "function"
    },
    {
      "inputs": [
        {
          "internalType": "address",
          "name": "_token",
          "type": "address"
        },
        {
          "internalType": "address",
          "name": "_startFactory",
          "type": "address"
        },
        {
          "internalType": "address",
          "name": "_endFactory",
          "type": "address"
        },
        {
          "internalType": "uint256",
          "name": "_amountIn",
          "type": "uint256"
        }
      ],
      "name": "backrun",
      "outputs": [],
      "stateMutability": "nonpayable",
      "type": "function"
    },
    {
      "inputs": [],
      "name": "liquidate",
      "outputs": [],
      "stateMutability": "nonpayable",
      "type": "function"
    },
    {
      "inputs": [
        {
          "internalType": "address[]",
          "name": "path",
          "type": "address[]"
        },
        {
          "internalType": "uint256",
          "name": "amountIn",
          "type": "uint256"
        },
        {
          "internalType": "address",
          "name": "factory",
          "type": "address"
        },
        {
          "internalType": "address",
          "name": "recipient",
          "type": "address"
        },
        {
          "internalType": "bool",
          "name": "fromThis",
          "type": "bool"
        }
      ],
      "name": "swap",
      "outputs": [],
      "stateMutability": "nonpayable",
      "type": "function"
    },
    {
      "inputs": [
        {
          "internalType": "address[]",
          "name": "path",
          "type": "address[]"
        },
        {
          "internalType": "uint256",
          "name": "amountIn",
          "type": "uint256"
        },
        {
          "internalType": "address",
          "name": "factory",
          "type": "address"
        },
        {
          "internalType": "address",
          "name": "recipient",
          "type": "address"
        },
        {
          "internalType": "address",
          "name": "_pair",
          "type": "address"
        },
        {
          "internalType": "bool",
          "name": "fromThis",
          "type": "bool"
        }
      ],
      "name": "swapCheaper",
      "outputs": [
        {
          "internalType": "uint256",
          "name": "amountOut",
          "type": "uint256"
        }
      ],
      "stateMutability": "nonpayable",
      "type": "function"
    }
  ],
  "bytecode": {
    "object": "0x608060405234801561001057600080fd5b50604051611be4380380611be483398101604081905261002f9161006a565b600080546001600160a01b039092166001600160a01b031992831681179091556002805483169091179055600180549091163317905561009a565b60006020828403121561007c57600080fd5b81516001600160a01b038116811461009357600080fd5b9392505050565b611b3b806100a96000396000f3fe6080604052600436106100555760003560e01c80630cc732631461005757806328a07025146100775780633437a6111461008c5780637e372601146100bf57806386f89bd2146100df578063ad5c4648146100ff575b005b34801561006357600080fd5b506100556100723660046116f6565b61012c565b34801561008357600080fd5b506100556103b1565b34801561009857600080fd5b506100ac6100a7366004611776565b6104df565b6040519081526020015b60405180910390f35b3480156100cb57600080fd5b506100ac6100da366004611803565b610681565b3480156100eb57600080fd5b506100556100fa366004611894565b610935565b34801561010b57600080fd5b5060005461011f906001600160a01b031681565b6040516100b691906118e5565b6000836001600160a01b031663e6a4390587600081518110610150576101506118f9565b60200260200101518860018151811061016b5761016b6118f9565b60200260200101516040518363ffffffff1660e01b815260040161019092919061190f565b602060405180830381865afa1580156101ad573d6000803e3d6000fd5b505050506040513d601f19601f820116820180604052508101906101d19190611929565b905060006101e0858789610e26565b90506103a8876000815181106101f8576101f86118f9565b60200260200101516001600160a01b0316836001600160a01b0316630dfe16816040518163ffffffff1660e01b8152600401602060405180830381865afa158015610247573d6000803e3d6000fd5b505050506040513d601f19601f8201168201806040525081019061026b9190611929565b6001600160a01b031614610299578160018151811061028c5761028c6118f9565b60200260200101516102b5565b816000815181106102ac576102ac6118f9565b60200260200101515b886000815181106102c8576102c86118f9565b60200260200101516001600160a01b0316846001600160a01b0316630dfe16816040518163ffffffff1660e01b8152600401602060405180830381865afa158015610317573d6000803e3d6000fd5b505050506040513d601f19601f8201168201806040525081019061033b9190611929565b6001600160a01b031614610369578260008151811061035c5761035c6118f9565b6020026020010151610385565b8260018151811061037c5761037c6118f9565b60200260200101515b89600081518110610398576103986118f9565b6020026020010151858888610fb0565b50505050505050565b6001546001600160a01b031633146103fe5760405162461bcd60e51b815260206004820152600b60248201526a1b9bdd08185b1b1bddd95960aa1b60448201526064015b60405180910390fd5b6002546001546040516370a0823160e01b81526001600160a01b039283169263a9059cbb92169083906370a082319061043b9030906004016118e5565b602060405180830381865afa158015610458573d6000803e3d6000fd5b505050506040513d601f19601f8201168201806040525081019061047c919061194d565b6040518363ffffffff1660e01b8152600401610499929190611966565b6020604051808303816000875af11580156104b8573d6000803e3d6000fd5b505050506040513d601f19601f820116820180604052508101906104dc919061197f565b50565b604080516002808252606082018352600092839291906020830190803683370190505090508781600081518110610518576105186118f9565b60200260200101906001600160a01b031690816001600160a01b031681525050888160018151811061054c5761054c6118f9565b60200260200101906001600160a01b031690816001600160a01b03168152505061057b81848930896000610681565b5060408051600280825260608201835260009260208301908036833701905050905089816000815181106105b1576105b16118f9565b60200260200101906001600160a01b031690816001600160a01b03168152505088816001815181106105e5576105e56118f9565b6001600160a01b0392831660209182029290920101526040516370a0823160e01b81528b916106729184918416906370a08231906106279030906004016118e5565b602060405180830381865afa158015610644573d6000803e3d6000fd5b505050506040513d601f19601f82011682018060405250810190610668919061194d565b8a338a6001610681565b9b9a5050505050505050505050565b6000828161069087898b610e26565b9050610858896000815181106106a8576106a86118f9565b60200260200101516001600160a01b0316836001600160a01b0316630dfe16816040518163ffffffff1660e01b8152600401602060405180830381865afa1580156106f7573d6000803e3d6000fd5b505050506040513d601f19601f8201168201806040525081019061071b9190611929565b6001600160a01b031614610749578160018151811061073c5761073c6118f9565b6020026020010151610765565b8160008151811061075c5761075c6118f9565b60200260200101515b8a600081518110610778576107786118f9565b60200260200101516001600160a01b0316846001600160a01b0316630dfe16816040518163ffffffff1660e01b8152600401602060405180830381865afa1580156107c7573d6000803e3d6000fd5b505050506040513d601f19601f820116820180604052508101906107eb9190611929565b6001600160a01b031614610819578260008151811061080c5761080c6118f9565b6020026020010151610835565b8260018151811061082c5761082c6118f9565b60200260200101515b8b600081518110610848576108486118f9565b6020026020010151888a89610fb0565b816001600160a01b0316630dfe16816040518163ffffffff1660e01b8152600401602060405180830381865afa158015610896573d6000803e3d6000fd5b505050506040513d601f19601f820116820180604052508101906108ba9190611929565b6001600160a01b0316896001815181106108d6576108d66118f9565b60200260200101516001600160a01b03161461090c57806001815181106108ff576108ff6118f9565b6020026020010151610928565b8060008151811061091f5761091f6118f9565b60200260200101515b9998505050505050505050565b6002546040516370a0823160e01b81526000916001600160a01b0316906370a08231906109669030906004016118e5565b602060405180830381865afa158015610983573d6000803e3d6000fd5b505050506040513d601f19601f820116820180604052508101906109a7919061194d565b604080516002808252606082018352929350600092909160208301908036833750506040805160028082526060820183529394506000939092509060208301908036833750506000805485519394506001600160a01b031692859250610a0f57610a0f6118f9565b60200260200101906001600160a01b031690816001600160a01b0316815250508682600181518110610a4357610a436118f9565b60200260200101906001600160a01b031690816001600160a01b0316815250508681600081518110610a7757610a776118f9565b6001600160a01b039283166020918202929092010152600054825191169082906001908110610aa857610aa86118f9565b60200260200101906001600160a01b031690816001600160a01b031681525050610ad682858830600061012c565b610b5081886001600160a01b03166370a08231306040518263ffffffff1660e01b8152600401610b0691906118e5565b602060405180830381865afa158015610b23573d6000803e3d6000fd5b505050506040513d601f19601f82011682018060405250810190610b47919061194d565b8730600161012c565b610b5a84846119b2565b6002546040516370a0823160e01b81526001600160a01b03909116906370a0823190610b8a9030906004016118e5565b602060405180830381865afa158015610ba7573d6000803e3d6000fd5b505050506040513d601f19601f82011682018060405250810190610bcb919061194d565b11610c0d5760405162461bcd60e51b8152602060048201526012602482015271617262206e6f742070726f66697461626c6560701b60448201526064016103f5565b6002546040516370a0823160e01b815260009161271091879187916001600160a01b03909116906370a0823190610c489030906004016118e5565b602060405180830381865afa158015610c65573d6000803e3d6000fd5b505050506040513d601f19601f82011682018060405250810190610c89919061194d565b610c9391906119c5565b610c9d91906119c5565b610ca9906123286119d8565b610cb391906119f7565b600254604051632e1a7d4d60e01b8152600481018390529192506001600160a01b031690632e1a7d4d90602401600060405180830381600087803b158015610cfa57600080fd5b505af1158015610d0e573d6000803e3d6000fd5b505060405141925083156108fc02915083906000818181858888f19350505050158015610d3f573d6000803e3d6000fd5b506002546040516370a0823160e01b81526001600160a01b039091169063a9059cbb90339083906370a0823190610d7a9030906004016118e5565b602060405180830381865afa158015610d97573d6000803e3d6000fd5b505050506040513d601f19601f82011682018060405250810190610dbb919061194d565b6040518363ffffffff1660e01b8152600401610dd8929190611966565b6020604051808303816000875af1158015610df7573d6000803e3d6000fd5b505050506040513d601f19601f82011682018060405250810190610e1b919061197f565b505050505050505050565b6060600282511015610e7a5760405162461bcd60e51b815260206004820152601e60248201527f556e697377617056324c6962726172793a20494e56414c49445f50415448000060448201526064016103f5565b81516001600160401b03811115610e9357610e93611617565b604051908082528060200260200182016040528015610ebc578160200160208202803683370190505b5090508281600081518110610ed357610ed36118f9565b60200260200101818152505060005b60018351610ef091906119c5565b811015610fa857600080610f4387868581518110610f1057610f106118f9565b602002602001015187866001610f2691906119b2565b81518110610f3657610f366118f9565b6020026020010151611211565b91509150610f6b848481518110610f5c57610f5c6118f9565b6020026020010151838361133f565b84610f778560016119b2565b81518110610f8757610f876118f9565b60200260200101818152505050508080610fa090611a19565b915050610ee2565b509392505050565b600083905060008590506000866001600160a01b0316836001600160a01b0316630dfe16816040518163ffffffff1660e01b8152600401602060405180830381865afa158015611004573d6000803e3d6000fd5b505050506040513d601f19601f820116820180604052508101906110289190611929565b6001600160a01b03161461103c578761103e565b885b9050836110c3576040516323b872dd60e01b81523360048201526001600160a01b038781166024830152604482018390528316906323b872dd906064016020604051808303816000875af115801561109a573d6000803e3d6000fd5b505050506040513d601f19601f820116820180604052508101906110be919061197f565b611134565b60405163a9059cbb60e01b81526001600160a01b0383169063a9059cbb906110f19089908590600401611966565b6020604051808303816000875af1158015611110573d6000803e3d6000fd5b505050506040513d601f19601f82011682018060405250810190611134919061197f565b6111725760405162461bcd60e51b815260206004820152600f60248201526e1d1c985b9cd9995c8819985a5b1959608a1b60448201526064016103f5565b826001600160a01b031663022c0d9f828b1461118e578a611191565b60005b838b1461119e578a6111a1565b60005b604080516000815260208101918290526001600160e01b031960e086901b169091526111d49291908a9060248101611a32565b600060405180830381600087803b1580156111ee57600080fd5b505af1158015611202573d6000803e3d6000fd5b50505050505050505050505050565b6000806000611220858561145e565b509050600080876001600160a01b031663e6a4390588886040518363ffffffff1660e01b815260040161125492919061190f565b602060405180830381865afa158015611271573d6000803e3d6000fd5b505050506040513d601f19601f820116820180604052508101906112959190611929565b6001600160a01b0316630902f1ac6040518163ffffffff1660e01b8152600401606060405180830381865afa1580156112d2573d6000803e3d6000fd5b505050506040513d601f19601f820116820180604052508101906112f69190611ab5565b506001600160701b031691506001600160701b03169150826001600160a01b0316876001600160a01b03161461132d578082611330565b81815b90999098509650505050505050565b60008084116113a45760405162461bcd60e51b815260206004820152602b60248201527f556e697377617056324c6962726172793a20494e53554646494349454e545f4960448201526a1394155517d05353d5539560aa1b60648201526084016103f5565b6000831180156113b45750600082115b6114115760405162461bcd60e51b815260206004820152602860248201527f556e697377617056324c6962726172793a20494e53554646494349454e545f4c604482015267495155494449545960c01b60648201526084016103f5565b600061141f856103e5611555565b9050600061142d8285611555565b9050600061144783611441886103e8611555565b906115c2565b905061145381836119f7565b979650505050505050565b600080826001600160a01b0316846001600160a01b0316036114d05760405162461bcd60e51b815260206004820152602560248201527f556e697377617056324c6962726172793a204944454e544943414c5f41444452604482015264455353455360d81b60648201526084016103f5565b826001600160a01b0316846001600160a01b0316106114f05782846114f3565b83835b90925090506001600160a01b03821661154e5760405162461bcd60e51b815260206004820152601e60248201527f556e697377617056324c6962726172793a205a45524f5f41444452455353000060448201526064016103f5565b9250929050565b60008115806115795750828261156b81836119d8565b925061157790836119f7565b145b6115bc5760405162461bcd60e51b815260206004820152601460248201527364732d6d6174682d6d756c2d6f766572666c6f7760601b60448201526064016103f5565b92915050565b6000826115cf83826119b2565b91508110156115bc5760405162461bcd60e51b815260206004820152601460248201527364732d6d6174682d6164642d6f766572666c6f7760601b60448201526064016103f5565b634e487b7160e01b600052604160045260246000fd5b6001600160a01b03811681146104dc57600080fd5b803561164d8161162d565b919050565b600082601f83011261166357600080fd5b813560206001600160401b038083111561167f5761167f611617565b8260051b604051601f19603f830116810181811084821117156116a4576116a4611617565b6040529384528581018301938381019250878511156116c257600080fd5b83870191505b84821015611453576116d982611642565b835291830191908301906116c8565b80151581146104dc57600080fd5b600080600080600060a0868803121561170e57600080fd5b85356001600160401b0381111561172457600080fd5b61173088828901611652565b9550506020860135935060408601356117488161162d565b925060608601356117588161162d565b91506080860135611768816116e8565b809150509295509295909350565b600080600080600080600060e0888a03121561179157600080fd5b873561179c8161162d565b965060208801356117ac8161162d565b955060408801356117bc8161162d565b945060608801356117cc8161162d565b935060808801356117dc8161162d565b925060a08801356117ec8161162d565b8092505060c0880135905092959891949750929550565b60008060008060008060c0878903121561181c57600080fd5b86356001600160401b0381111561183257600080fd5b61183e89828a01611652565b9650506020870135945060408701356118568161162d565b935060608701356118668161162d565b925060808701356118768161162d565b915060a0870135611886816116e8565b809150509295509295509295565b600080600080608085870312156118aa57600080fd5b84356118b58161162d565b935060208501356118c58161162d565b925060408501356118d58161162d565b9396929550929360600135925050565b6001600160a01b0391909116815260200190565b634e487b7160e01b600052603260045260246000fd5b6001600160a01b0392831681529116602082015260400190565b60006020828403121561193b57600080fd5b81516119468161162d565b9392505050565b60006020828403121561195f57600080fd5b5051919050565b6001600160a01b03929092168252602082015260400190565b60006020828403121561199157600080fd5b8151611946816116e8565b634e487b7160e01b600052601160045260246000fd5b808201808211156115bc576115bc61199c565b818103818111156115bc576115bc61199c565b60008160001904831182151516156119f2576119f261199c565b500290565b600082611a1457634e487b7160e01b600052601260045260246000fd5b500490565b600060018201611a2b57611a2b61199c565b5060010190565b84815260006020858184015260018060a01b038516604084015260806060840152835180608085015260005b81811015611a7a5785810183015185820160a001528201611a5e565b50600060a0828601015260a0601f19601f8301168501019250505095945050505050565b80516001600160701b038116811461164d57600080fd5b600080600060608486031215611aca57600080fd5b611ad384611a9e565b9250611ae160208501611a9e565b9150604084015163ffffffff81168114611afa57600080fd5b80915050925092509256fea2646970667358221220f126c5d575a59b1b370fa81e076c3b725926526d593015378d4a3b330ea499a064736f6c63430008100033",
    "linkReferences": {}
  },
  "methodIdentifiers": {
    "WETH()": "ad5c4648",
    "arb(address,address,address,address,address,address,uint256)": "3437a611",
    "backrun(address,address,address,uint256)": "86f89bd2",
    "liquidate()": "28a07025",
    "swap(address[],uint256,address,address,bool)": "0cc73263",
    "swapCheaper(address[],uint256,address,address,address,bool)": "7e372601"
  },
  "id": 2
}