{
  "abi": [
    {
      "inputs": [],
      "stateMutability": "nonpayable",
      "type": "constructor"
    },
    {
      "inputs": [],
      "name": "bid",
      "outputs": [
        {
          "internalType": "uint256",
          "name": "",
          "type": "uint256"
        }
      ],
      "stateMutability": "payable",
      "type": "function"
    },
    {
      "inputs": [],
      "name": "claim",
      "outputs": [
        {
          "internalType": "uint256",
          "name": "",
          "type": "uint256"
        }
      ],
      "stateMutability": "nonpayable",
      "type": "function"
    },
    {
      "inputs": [],
      "name": "last_bid_block",
      "outputs": [
        {
          "internalType": "uint256",
          "name": "",
          "type": "uint256"
        }
      ],
      "stateMutability": "view",
      "type": "function"
    },
    {
      "inputs": [],
      "name": "terminate",
      "outputs": [],
      "stateMutability": "nonpayable",
      "type": "function"
    },
    {
      "inputs": [
        {
          "internalType": "uint256",
          "name": "",
          "type": "uint256"
        }
      ],
      "name": "winners",
      "outputs": [
        {
          "internalType": "address",
          "name": "",
          "type": "address"
        }
      ],
      "stateMutability": "view",
      "type": "function"
    }
  ],
  "bytecode": {
    "object": "0x608060405234801561001057600080fd5b50436002819055633b9aca00600155600090815260208190526040902080546001600160a01b0319908116909155600380549091163317905561027f806100586000396000f3fe60806040526004361061004a5760003560e01c80630c08bf881461004f5780631998aeef146100665780634e71d92d1461008157806389fb637914610096578063a2fb1175146100ac575b600080fd5b34801561005b57600080fd5b506100646100fa565b005b61006e610154565b6040519081526020015b60405180910390f35b34801561008d57600080fd5b5061006e610193565b3480156100a257600080fd5b5061006e60025481565b3480156100b857600080fd5b506100e26100c7366004610230565b6000602081905290815260409020546001600160a01b031681565b6040516001600160a01b039091168152602001610078565b6003546001600160a01b031633146101465760405162461bcd60e51b815260206004820152600b60248201526a1b9bdd08185b1b1bddd95960aa1b604482015260640160405180910390fd5b6003546001600160a01b0316ff5b600060015434111561018c575043600081815260208190526040902080546001600160a01b0319163317905560025534600181905590565b5060015490565b60025460009081526020819052604081205447906001600160a01b03163314806101d557506002546000908152602081905260409020546001600160a01b0316155b1561022b57633b9aca0060015560405133908290600081818185875af1925050503d8060008114610222576040519150601f19603f3d011682016040523d82523d6000602084013e610227565b606091505b5050505b919050565b60006020828403121561024257600080fd5b503591905056fea2646970667358221220f79c29b1a9cd997d138576e038d1f785b26eacff1eabcb6a6ce8911ffc90039a64736f6c63430008100033",
    "linkReferences": {}
  },
  "methodIdentifiers": {
    "bid()": "1998aeef",
    "claim()": "4e71d92d",
    "last_bid_block()": "89fb6379",
    "terminate()": "0c08bf88",
    "winners(uint256)": "a2fb1175"
  },
  "id": 4
}